:10000000809B0120A92200001F5F0000D922000070
:10001000D9220000D9220000D9220000D9220000F4
:10002000000000000000000000000000B5200000FB
:10003000D9220000000000005D200000FB5E0000EF
:100040006922000069220000692200006922000084
:100050006922000069220000692200006922000074
:100060006922000069220000692200006922000064
:100070006922000069220000692200006922000054
:100080006922000069220000692200006922000044
:100090006922000069220000692200006922000034
:1000A0006922000069220000692200006922000024
:1000B0006922000069220000692200006922000014
:1000C0006922000069220000692200006922000004
:1000D00069220000692200006922000069220000F4
:1000E00069220000692200006922000069220000E4
:1000F00069220000692200006922000069220000D4
:1001000069220000692200006922000069220000C3
:1001100069220000692200006922000069220000B3
:1001200069220000692200006922000069220000A3
:100130006922000069220000692200006922000093
:040140006922000030
:1001440053B94AB9002908BF00281CBF4FF0FF313A
:100154004FF0FF3000F070B9ADF1080C6DE904CE3A
:1001640000F006F8DDF804E0DDE9022304B070478E
:100174002DE9F047089E0D4604468A46002B7FD1A0
:100184008A42174641D9B2FA82F24AB1C2F1200139
:1001940005FA02F39740944020FA01F141EA030A78
:1001A4004FEA17484FEA144C1FFA87F9BAFBF8FED6
:1001B40008FB1EA30EFB09F14CEA0343994206D93E
:1001C400FB1802D2994200F224810EF1FF3E591A23
:1001D400A3B2B1FBF8F008FB101100FB09F943EAE4
:1001E4000144A14505D93C1902D2A14500F20E8172
:1001F4000138A4EB090440EA0E4000211EB1D440AA
:100204000023C6E90043BDE8F08702B9FFDEB2FA75
:1002140082F2002A4FD1CB1B4FEA174E1FFA87F800
:100224000121250CB3FBFEFC0EFB1C302B4608FB06
:100234000CF945EA0045A9450AD97D192CBF0123CB
:100244000023A94502D9002B00F0D9800CF1FF3C12
:10025400A5EB0905A3B2B5FBFEF00EFB105508FB98
:1002640000F843EA0544A04505D93C1902D2A0454B
:1002740000F2C9800138A4EB080440EA0C40BDE751
:100284008B4208D9002E00F0B1800021C6E9000598
:100294000846BDE8F087B3FA83F1002946D1AB42A2
:1002A400C0F0A780824240F2A4800846002EAAD063
:1002B400C6E9004AA7E7C2F12000974001FA02F319
:1002C4004FEA174EC14024FA00F51FFA87F894400C
:1002D4001D43B1FBFEF02B0C0EFB101100FB08FCC0
:1002E40043EA01439C4509D9FB182CBF0121002195
:1002F4009C4502D9002900F095800138A3EB0C033A
:10030400ADB2B3FBFEF10EFB113301FB08FC45EA71
:100314000345AC4505D97D1902D2AC4500F289806C
:100324000139A5EB0C0341EA00417AE7C1F120044D
:100334008B4002FA01F705FA01FCE24020FA04F8C6
:10034400E54000FA01FE134348EA0C024FEA134861
:100354004FEA124C1FFA83F9B5FBF8FA08FB1A5559
:100364000AFB09F04CEA054C60450AD913EB0C0C66
:100374002CBF01250025604501D9002D55D00AF177
:10038400FF3AACEB000C92B2BCFBF8F008FB10CCCB
:1003940000FB09F942EA0C4CE14505D913EB0C0CBE
:1003A40001D2E1453BD8013840EA0A40ACEB090CE4
:1003B400A0FB0789CC4545464A4602D306D1C6452B
:1003C40004D20138B8EB070569EB03022EB3BEEB88
:1003D40005036CEB020C23FA01F20CFA04F42CFA78
:1003E40001F300211443C6E900430CE731463046CB
:1003F40009E7841A65EB030301209A4656E7ACF13A
:10040400020C3D4424E702383C4434E702383C44BF
:10041400EFE6AEF1020E3B44D9E63146F3E602388C
:100424009C44C1E702383B4468E7AAF1020A9C44B1
:10043400A7E702393D4474E7704700BF7FB5314BED
:10044400314A3248C3F800264921C3F80426C3F8C8
:100454000826C3F80C26C3F81026C3F81426C3F8DC
:100464001826C3F81C2605F018FA00F07DF8284871
:1004740000F05EF828B94521254A264805F00DFA12
:10048400FEE701A800F0C6FC234B1B68834204D09E
:100494004521224805F001FAFEE74921039A204844
:1004A40005F0FBF949211F4805F0F7F94FF48031B5
:1004B400002002F0B9FE20B145211B4805F0EDF9FA
:1004C400FEE769469DF8080000F03EF8009B039C97
:1004D4001C44019B1D8966194FF02002EFF3118320
:1004E40082F31188BFF36F8F05F007FD00F030FF32
:1004F400635983F308887368984745210B4805F0CE
:10050400CCF9FEE7008001503546526E9486000017
:10051400AD860000C08600005C470120DF86000035
:100524000287000031870000568700008987000099
:1005340010B5044C236813B903F0D6FF206020687B
:1005440010BD00BF58470120024608B538B1054820
:100554000023452105F0A1F96FF0150008BD0860DE
:10056400FCE700BFAC8700004FF4C051014803F022
:10057400BBBA00BF3C5601202DE9F04FDFF8F891DB
:10058400F9B038A81746DDE984481D46DDF808B2FD
:10059400D9F8006007F068FB002138A803F0B4FB29
:1005A400CDF80C903CB1B8F1000F04DD4246214671
:1005B40038A807F05DFB4FF000097B89B7F8088085
:1005C4009844FB689844C8454BD80DA938A807F04F
:1005D4008CFB869B23B1202218460DA905F0C9FC8B
:1005E40000232A46009339464FF6FF7307A804F008
:1005F4009AFE0446002840F0B58080464FF0FF374D
:10060400DFF878910DF1160305AA06A907A804F0EE
:10061400D6FE041EC0F2A68040F09780BDF816A056
:10062400BAF1100F34D1BDF81480B8F1200F40F0A6
:10063400978043462846069938AA05F048FB0446A5
:10064400002840F08F80424638A90DA804F02FFFFF
:100654000446474B1B68834240F084804FF00108F6
:10066400D0E7839AA8EB09039A4228BF1A46494661
:100674001346924628465A4605F029FB04460028AC
:1006840070D15246594638A807F0F2FAD1449AE795
:10069400BAF1010F36D1BDF81430202B60D82846AA
:1006A400069938AA05F013FB044600285AD19DF890
:1006B40014A0BAF1200F03D94FF0FF342746A1E765
:1006C400D9F800302B4F0293029B9C42F4DA1DA808
:1006D40007F0CAFA00211DA803F016FB7B681DA8C9
:1006E4001A6857F8081B07F0C3FA15A91DA807F0E4
:1006F400FCFA524638A915A805F02BFC0028DDD0D9
:100704000134E1E7BAF1200F7FF47CAF002F19DB4D
:10071400D9F80030BB4215DDBDF81430B3F5807F45
:100724001ED12846069938AA05F0D1FA0446C8B95C
:10073400FFB25146BDF81430009738AA0DA800F056
:100744001FF806464FF0FF375CE7B8F1000F0DD0F5
:10075400074B1B68B34201D0039B1E68344601E07B
:100764004FF0FF34204679B0BDE8F08F0124F9E75B
:100774005C470120DC82000000450120D882000093
:100784002DE9F04F91460022ADF54B7D98466B4B19
:1007940007468A4627A811469DF850631D6807F04E
:1007A4001FFA674B8AAA53F8364003EBC6035B680B
:1007B4000294196802A80C443023214605F001FF75
:1007C40068BB029B8A9A13449C4228D1214629AAD9
:1007D40002A805F00AFF10BB0DF1B00B5A462146E2
:1007E40002A805F002FF0646C8B929A806F0E8FAEF
:1007F400029B28909C4212D133463246CDE9006BCD
:1008040029A927A807F0A8F948B927A803F01AFAD4
:1008140028B929A806F0D4FA804528900AD027A838
:1008240007F0E9F927A807F0E6F928460DF54B7D0E
:10083400BDE8F08FB8F5807F02D04FF0FF35F1E7C7
:10084400BAF1200FF9D149468AAA27A803F01EFA63
:1008540004460028F1D19DF82733BC2BEDD10DF5CA
:10086400A478DF26454603900CA807F0FDF9002183
:100874000CA803F049FA20220DF207310CA807F066
:10088400F7F9042203A90CA807F0F2F904A90CA8AB
:1008940007F02BFA1F2ED4BFB1464FF020099DF864
:1008A4000F30404601334A4604A9A6EB09068DF8E9
:1008B4000F3005F05EFB002EC844D5DC28462A46DE
:1008C400DF238AAE117816F801CB013B81EA0C01D3
:1008D40002F8011BF6D12B7803F07F032B7010F87C
:1008E400016B002EA9D10134BE2CF8D195F8BE308D
:1008F400012BA2D10CA807F0B7F931460CA803F0DC
:1009040003FA08220F490CA807F0B2F9394620224D
:100914000CA807F0ADF920220DF207210CA807F06E
:10092400A7F904A90CA807F0E0F920220DF2073179
:1009340004A804F0BCFD054681E700BF0045012082
:10094400DC820000D28700002DE9F041032386B049
:100954000D466F460026DFF86C80ADF8003017F8BE
:10096400010B01A900F0BAFF0446D8B9019810237D
:10097400816802AA103905F0AAF9044628B1019841
:1009840005F0A4F90EE00126E9E71022414602A889
:1009940005F0DFFA50B1019805F098F9002EF2D075
:1009A4004FF0FF34204606B0BDE8F081019805F011
:1009B40041FD0423A0F108012A46019805F087F9B6
:1009C4000446DCE7D08400002DE9F041384B88B0C0
:1009D400064600200D461C6804F09CFC06A9C0B223
:1009E40000F07CFF002857D1294604F093FC2C2406
:1009F40007A9C0B204FB056400F070FF002836D0DC
:100A04004FF02C0808FB05F806EB0807396911F0CC
:100A1400100137D14FF480730193264B2246009383
:100A24000846CDE90311069B0291FFF7A5FD044694
:100A3400214B56F8082006989A420CD13A89FB6853
:100A4400D1438B4207D813448268934203D21B4B91
:100A54001B68A3421DD045B38268002105F07DF9CF
:100A6400174A4521174804F018FF012411E007989C
:100A740005F0A2F90746079805F028F9631EE21C61
:100A840093420DD1002DF0D03046069904F00FFEAC
:100A94002C46069805F01AF9204608B0BDE8F08106
:100AA40013F8011FB942EBD0AAE7074AD9E700BF00
:100AB400004501203C7201203DB8F3965C470120BB
:100AC400DA870000EC870000E487000073B50D4668
:100AD400002104462846CDE9001104F0A7FD30B3F7
:100AE400164E2268B24203D1204601AA04F016FD34
:100AF400E36AB34204D16A460121204604F00EFDA4
:100B0400DDE90032934288BF0193019BAB60019AF7
:100B14002946204600F020FB094B1A68002A03DD11
:100B24005721084804F0B9FE002002B070BD05F159
:100B34000801FFF709FFAB680193E8E73DB8F396B6
:100B4400C04F0120148800002DE9F84F88469146D3
:100B54009A460026DFF870B0194C1A4D0B9B9E4242
:100B640001D300200FE00B9B40469F1BB7F5806F1D
:100B740028BF4FF48067144A3B4606EB0A0105F090
:100B8400A6F810B10120BDE8F88F0A993B465A46F1
:100B94004846711805F0B8F80028F3D1C4F8005697
:100BA4003E44C4F80456C4F80856C4F80C56C4F8B5
:100BB4001056C4F81456C4F81856C4F81C56CDE799
:100BC400008001503546526E3C6E01202DE9F04301
:100BD400884B0446602285B00F4600211E6805F04C
:100BE400F3F90021844B08466362844B236504F0C7
:100BF40091FB04F12001C0B200F070FE012100203D
:100C040004F088FB04F14C01C0B200F067FE054615
:100C1400204604F0E3FC024630B180225721784894
:100C240004F03BFE01238DE00146204604F0BEFCA7
:100C3400804618B1002257217248F1E7204600F09F
:100C4400A3F90028EED0684604F0E7FC6946204684
:100C540004F081FD18B1424657216B48E0E768462D
:100C640004F0E4FC80F001016A462046C9B204F0B5
:100C74009DFC02460028DDD1684604F0D7FC80467E
:100C840060BB69462046FFF721FF9DF8073084F8D2
:100C94005830033B012B06D8404604F0AAFD10B19E
:100CA400FF2384F858309DF80730023B022B0BD801
:100CB400002004F08CFD38B1FF2384F8583045211E
:100CC400524804F0EAFDFEE794F85830FF2BF6D0C2
:100CD4006A460021204604F069FCA3E79DF80790CA
:100CE400B9F1010F23D1104602F024FB831E022B1D
:100CF40080460DD849462046FFF766FE444B1B68E4
:100D0400984205D001280CBF4FF001084FF00508A8
:100D140084F8588094F85830042B8DF8073014D890
:100D2400012B18D82FD0FF2384F858302BE0012151
:100D34002046FFF749FE364B1B68984214BF052333
:100D44009DF8073084F85830E4E7052BEBD10020F8
:100D540004F04FFD12E069462046FFF7B7FE94F811
:100D640058300546DA1E012A0BD8002004F041FD54
:100D740005460028D7D1002004F029FD054610B10E
:100D8400D1E7022BF7D094F85830FF2B04D145213A
:100D94001E4804F082FDFEE7012B06D06A460021BE
:100DA400204604F003FC0546B8B900212046FFF7AD
:100DB4000BFE0646DFF85880D8F8003083420CD189
:100DC40010220021684605F0FFF8236AD8F8006075
:100DD4005A783A715B683C60BB60E06C04F076FF63
:100DE400206A04F073FF002D14BF2846304605B076
:100DF400BDE8F08300450120C0470120C04B01201D
:100E04004388000085880000B1880000DB8800006A
:100E14005C47012008B501460148FFF7D7FE08BD2D
:100E24006047012073B516461C4633B3436A5D68B8
:100E34006379012B15D101BB1F4B22681B689A42B1
:100E440098BF0025002004F065FA01A9C0B200F0A3
:100E540045FDF0B10125019804F038FF284602B0A1
:100E640070BD022B09D12368012B08D9124A1268DC
:100E7400934202D8B1FA81F149090025E2E7FCD195
:100E84000029DFD00129F8D12179023918BF0121C5
:100E9400F3E7294620233246019804F018FF05465B
:100EA4000028D7D1002CD6D0356804482D1A18BF95
:100EB4004FF0FF35CFE700BF044501203DB8F3965E
:100EC4002DE9F04F07460C4685B001460020164632
:100ED40004F0F4FA051E51DB3846E46D04F0F8FA28
:100EE4005FFA84F94FF0000A4FF0010B4FF0FF3422
:100EF40005F1FF3809FB08089DB9BAF1010F03DDBC
:100F04004521204804F0C9FC631C06D07F2C2ADC50
:100F140040F2011301343460B380284605B0BDE8C3
:100F2400F08F6B1E00934146012338460DF10F02EA
:100F340004F0CDFE031E019322DB012238460DF19D
:100F44000F0105F088FA019B40B19B4501D00AF1DD
:100F5400010A9B46009DA8EB0908CDE7B4F1FF3FC9
:100F640008BF2C46F5E70223803C7371631004F03C
:100F740001040133013433603471CEE70725CCE733
:100F84000125CAE7E788000038B5826A446DA242A9
:100F940008D0631C934205D05721134804F07DFC0C
:100FA400002038BD802A1CD957211048F6E7416A31
:100FB400056D01EBC30105EBC30549686D688D42FE
:100FC40002D057210A48E9E70133A342EFD19A42FC
:100FD40005D9426A02EBC3035B689942F1D101204F
:100FE400DFE700231946F0E70A8900004289000080
:100FF4007189000000B589B0032004A905F05EFAE8
:101004009DF81020012A41D0254B2649032A18BFF8
:101014000B469DF81320492102929DF81220224884
:1010240001929DF811200092204A04F036FC07201A
:1010340006A905F043FA9DF81820012A28D0184B78
:101044001849032A18BF0B469DF81B204921029218
:101054009DF81A20144801929DF819200092144A10
:1010640004F01BFC9DF81030012B13D19DF81230B5
:10107400032B0FD19DF81830012B0BD00D484921BB
:1010840004F00BFC022009B05DF804FB0A4BC0E736
:10109400094BD9E70948492104F0FFFB0020F2E796
:1010A400A2890000A8890000BA890000AC89000068
:1010B400FB8900000B8A00009D8900002A8A000039
:1010C40070B5064618464B6814461D4A03F0FF23C4
:1010D40093420D4686B02ED10B68012B2BD104A967
:1010E40005F0ECF99DF81020012A26D0154B16497D
:1010F400032A18BF0B469DF81320492102929DF83C
:101104001220124801929DF811200092104A04F016
:10111400C4FB9DF81030032B0DD12146304604F05A
:10112400C6FA204605F0BAF92046A96804F0E7F9A2
:10113400204602F0A1F806B070BD064BDBE700BF05
:1011440000010004A2890000A8890000BA890000F7
:10115400FB8900009D890000436A2DE9F04F0C468D
:101164005E680546012100238BB033449342084650
:1011740001F10101F9D3734F3860204604F056FAA7
:101184000397B8B1E86D04F094F90022AB6A013B0F
:101194003244904201D9013BFAE7039A12689A4219
:1011A40008D35721684804F078FB0123E3710BB09E
:1011B400BDE8F08F08A9032000F090FB09A90720DF
:1011C40000F08CFB072321462846099AFFF778FF95
:1011D4006379012B08D1039BDFF870B11F68039B6F
:1011E4001B68A7B90123236002230127DFF85C8170
:1011F40063710693039BDDF820901B689F424AD9D4
:10120400484604F063FD099804F060FDCFE72268C6
:1012140001339B1A9F423CD86B6A012A196853F820
:10122400370003EBC70353F8083CDDF82080A0EB3C
:101234000109A3EB010A12D1E268099B022A0AD030
:1012440041462846049304F032FA22464146284691
:1012540004F062FA049B1946284604F028FA324640
:101264004946404604F021FA534642464146284640
:10127400CDE90096FFF768FC2146284604F0E3F91F
:1012840023680133236020B1DBF800300133CBF84D
:101294000030013FA3E723689F4250D36A6AFB00F2
:1012A40052F83710083B05911168DDF824A0049129
:1012B400296DC8580968A0EB010B217901293CD19B
:1012C400D158049B3246C91A4846079104F0EDF9F7
:1012D40007995B464A460091284651460196FFF716
:1012E40033FC2146284604F0AEF9069B237120B155
:1012F400D8F800300133C8F8003032465946504619
:1013040004F0D3F9DDE9042349469B1A28465246E2
:10131400CDE900B6FFF718FC2146284604F093F9FE
:101324002368013323604FF00103237138B1D8F8E7
:1013340000300133C8F8003001E00229DDD0013764
:1013440058E700BF04450120418A0000C04F012036
:101354000122124B12491A604FF0FF33C1F848338F
:10136400C1F8083301F580514A60043100210D4A67
:10137400C2F84833C2F80833A2F55042C2F8001547
:10138400C2F8083302F58052C2F80015C2F80833D7
:101394004FF05022C2F80833704700BF0440015098
:1013A40000400150005001500B6801330B60014BA9
:1013B4001B68184708450120014B1860704700BF9F
:1013C4000845012007B50B46002102460191034858
:1013D40001A900F0EBF803B05DF804FBAD130000C5
:1013E4002DE9F84FB0F81890044619F00808934610
:1013F4000DD001290CBF49F0100949F02009A0F8CB
:1014040018908BF31188BFF36F8FBDE8F88F09F044
:101414000709022907D1204604F04CFA0028F0D02D
:101424000128238B50D16769218B002F15DA256899
:1014340021F00701C4E9008841F00101218300265D
:10144400218B01F0070ACA4502D0A368002B5CD1A6
:101454000DB9002E74D0002358E001F007035A1F81
:10146400012A20D821F00701062B256889B2C4E996
:1014740000880CD1002D2B4638BF00232BB1628B82
:101484001B6801326283002BF8D141F0020120462F
:10149400218304F00FFA06460028D1D0238B43F0B1
:1014A40020032383CBE7042B0CD121F0070189B25D
:1014B4002046218304F0FEF905460028BFD041F000
:1014C400200121830025BAE7032809D1226923F0EA
:1014D4000703166843F00603002523832F46AFE76E
:1014E400042806D1226923F00703566843F0040355
:1014F400F2E7052806D1226923F00703966843F032
:101504000503E9E700252E46E8E7012341F0080139
:1015140021838BF31188BFF36F8F03BB002D33D16D
:1015240016B120462049B0474FF02003EFF3118B4A
:1015340083F31188BFF36F8F238B23F00803238376
:10154400238BDA0628D5012123F010032383B4F872
:10155400189009F0070900297FF45BAF51E7A168EF
:101564000029DBD00B68002B38BF00239946524674
:101574003B462046D1F804B0D847B9F1000FCDD08E
:101584004946D9F80030EEE729463B465246204604
:101594002D6804F0ABF9C1E713F020011EBF23F05E
:1015A400200302212383D2E71D5900002DE9F04FC7
:1015B400002406468B469A464FF0FF3527468DB0E9
:1015C4000B9402F1FF394FF000080AE0B8F1000F64
:1015D4000FD1252800F03A815946B0470B9A0132C1
:1015E4000B9219F8010F0028F0D10B980DB0BDE84B
:1015F400F08F7A280AD8622812D8302853D047D8D6
:10160400252800F01D812D2800F02781594625202A
:10161400B0470B9A5946013299F800000B9210E139
:10162400A0F16302172AF1D801A353F822F000BFF6
:1016340035180000E716000011160000111600000E
:1016440011160000C9160000E7160000111600006C
:1016540011160000C9160000111600001116000032
:101664001116000071170000111600001116000079
:101674000F18000011160000E716000011160000F4
:10168400111600007117000011160000C9160000A1
:1016940039280DD95828B9D16C2C40F0AA800023E0
:1016A4005AF8042B91E0002D02DA002F00F0D780C5
:1016B4000A2225EAE57502FB0505002F08BF02276B
:1016C400303D8EE7682803D1682C06D1482488E78A
:1016D4006C2802D16C2C00F0C480002C96D10446F6
:1016E4007FE77A2C06D1D04658F8042BD3177528F7
:1016F40028D111E06C2CF6D04C2C06D10AF107034A
:1017040023F00708F8E80223F1E77528DAF8002047
:101714000AF1040815D10023F81E18BF0120012F77
:101724000CBF30212021CDE901010A200DF12C0E3E
:10173400009059463046CDE9035E04F042FAC246B1
:1017440041E7D317002A73F10001E5DA59462D2049
:10175400CDE90623B047DDE906230B98524200F198
:1017640001000B9063EB4303013DD5E7702893D14F
:101774005AF8048B3C4B3D4AB8F1000F18BF13468E
:1017840013F8010B594606930993B0470B98069B2F
:1017940001300B9018780028F2D1B8F1000F11D164
:1017A4006A1F032F7FF40FAF9046B8F1000F7FF745
:1017B4000AAF59462020B0470B9A08F1FF3801328E
:1017C4000B92F2E742460346023DF81E18BF012081
:1017D400012F0CBF30212021CDE9010110200DF192
:1017E4002C0E009059463046CDE9035E04F0E9F929
:1017F400E9E64C2C7FF453AF0AF1070323F0070307
:101804009A465B685AF8082BDFE75AF8048B43467C
:101814009C4613F8010B18B9ACEB0802AA1AC0E7EE
:1018240059460693B0470B98069B01300B90EFE79F
:1018340059465AF8040BB0470B9B01330B93C2E68D
:101844005946B0470B9A01320B92BCE644464746D0
:101854004FF0FF354FF00108C3E60327C1E6012727
:10186400BFE64C24BDE600BF7E8B0000848B0000E5
:101874004FF02002EFF3118382F31188BFF36F8FCF
:101884000121044AC2F8401583F31188BFF36F8F16
:10189400002070470090035020B1034B800143F0B7
:1018A40001031847704700BFD0820000094B30B5D0
:1018B4001D68094B02461C6800239D4201DC002080
:1018C40030BD1901615C04EB03109142F8D001337F
:1018D400F3E700BF888300000C450120084B10B5D6
:1018E4001B680C462BB1FFF7E1FF28B120600020F4
:1018F40010BD6FF00C00FBE76FF00100F8E700BFCC
:101904000C45012030B589B00C4615460190FFF70F
:10191400CDFFB8B14368226802938368C068CDE9FB
:1019240003350023CDE90623059304F0AFF960B134
:10193400074901AA04F0CEFB079808B9059B236068
:1019440009B030BD6FF01500FAE76FF01200F7E749
:10195400955C0000044608B54FF02002EFF31183B4
:1019640082F31188BFF36F8F04F0C7FA204600F0AA
:101974007FFE034803F091FF00F008FCFCE700BF82
:10198400918B00000A2838B50446064D03D10D2179
:10199400286804F01AFA2868E1B204F016FA20461E
:1019A40038BD00BFC44F012010B5074802F09CFDAC
:1019B400064C074B1860204600F0DCFF2046FFF77A
:1019C400FBFC002010BD00BFBA8B00008919000089
:1019D400C44F012070B504460C250D480E46231A49
:1019E4009A100C4B40215343DBB25D4305F1400395
:1019F400184404F0F6F9011E04DB074B2B445B6822
:101A04009847002120463346BDE87040184700BF80
:101A1400D84F0120B76DDBB6A08300002DE9F0415B
:101A24000F4C104D031B9B105D43EBB20C255D4323
:101A3400074605F140000E462044402104F0EAF92F
:101A4400011E08DB084B2C44C4E90E36074B5B59D6
:101A5400BDE8F041184738463346BDE8F041184721
:101A6400D84F0120B76DDBB6815E0000A083000073
:101A740070B5002201210446052000F047FB052033
:101A840000F026FB0F4801F073FD0F4B984215D16F
:101A940004F039FDE6680D49304603F05AFF00288A
:101AA4000BDB01253564E468084904F11C0003F0EC
:101AB40050FF002801DB0020E56470BD6FF00400D6
:101AC400FBE700BF091B00000000AD0BB88300005A
:101AD40001460C2300224B43084870B5C418403318
:101AE400D4E90E561844A26304F0B2F92DB132467B
:101AF4002B46BDE870400248184770BDD84F0120FE
:101B04000846012010B1012804D07047034B1B6C18
:101B14005B0701D1FFF7DCBF704700BFD84F01203E
:101B240008B54FF02003EFF3118183F31188BFF35D
:101B34006F8F124A136843F0020013F00103106020
:101B44000CD04FF05022D2F80C34D2F80C2413F0FD
:101B5400010303D00A4804F07BF9012381F31188BF
:101B6400BFF36F8F23B1BDE808400020FFF7B0BF7B
:101B74000120BDE8084001F00BBD00BF2850012042
:101B840018500120074BD3E8EF2F22F00201C3E8DD
:101B9400E01F0028F7D1D30702D4012001F02ABDA9
:101BA400704700BF285001202DE9F8430122064662
:101BB4003949D1E8EF3FC1E8E02F0028F9D133B922
:101BC400364937484B60CB608A6003F0D5FE731EFC
:101BD400012B32D8012E07D14FF05023D3F81C34F7
:101BE40003F00303022B28D006F0D2F9044618B9F7
:101BF4002C4B1B78002B47D14FF02003EFF31185BA
:101C040083F31188BFF36F8F0124274FDFF89C8083
:101C1400DFF89C904FF05022D2F81834D2F81824F0
:101C2400D2030CD503F00303022B01D0012E06D1FD
:101C340024B385F31188BFF36F8FBDE8F883C4B173
:101C4400284600F0B1FA4FF05022D2F81835DBB232
:101C5400012BDFD139680029DCD0002139603968D3
:101C64000221C2F818152022C8F88021C9F80030D2
:101C7400D0E70021212002F0FBFFE4E74FF05023DE
:101C84000222C3F80423D8E74FF05023022205466A
:101C9400C3F80823B9E700BF2C500120C84F012026
:101CA400F44F01207E7301200451005000E100E054
:101CB40008500050044A1368C81A20F07F400344B7
:101CC400136003F0F7B800BF3C5001202DE9F04742
:101CD4004FF480374FF00009860000F1500406F1FC
:101CE4005026A40006F58036A4B204F15024D6F898
:101CF4004035DFF86C8021F07F4504F5803487405F
:101D0400D8F804A5A3EB0A0323F07F432AF07F420B
:101D1400012BC6F8402502D1132006F03FF90AF141
:101D24000202AB1A23F07F43B3F5000F88BF1546B8
:101D3400C4F80090236825F07F43C8F84473C6F8BC
:101D44004035D8F804359A4506D0EB1A023B23F007
:101D54007F43B3F5000F01D8BDE8F0872B46CFE7EA
:101D640000500150F8B5002427460F4E0F4B104A7F
:101D740018461D6804B1F8BDD2F80413C903FAD596
:101D840031680029F7D0346031684FF48031C2F8EB
:101D940048130124D2F8401525B100205A681F6069
:101DA400A847E3E70560E6E74051015030500120C1
:101DB4000050015038B500244FF480334FF4001222
:101DC4000D4D0121C5F80845C5F804330B4B15200A
:101DD400C3F88021224600F099F9152000F078F923
:101DE4000123074A02201360064A2B601360FFF7A1
:101DF400DBFE204638BD00BF0050015000E100E08A
:101E04000850015038500120134BB0F1FF3F08BF78
:101E14001846013800281CDD9842A8BF18460F4B0D
:101E2400D3F804250E4B1968521A12F4000F18BF88
:101E3400002022F07F4301330A4A03440A48106019
:101E440000205060044A934294BFC9188918FFF7D0
:101E54003DBF0020E3E700BFFFFF7F0000500150BB
:101E64003C50012030500120B91C00004FF02002EA
:101E7400EFF3118382F31188BFF36F8F064AD2F810
:101E84000405064A1268801A20F07F4083F3118803
:101E9400BFF36F8F704700BF005001503C500120CA
:101EA400014803F0C9B800BFC483000008B5B0B14D
:101EB4004368042B0DD100220368D3E8EF1F0129E6
:101EC40003D1C3E8E02F0028F7D1074808BF104624
:101ED40008BD3BB1006802F0C5FC0020F8E76FF4D0
:101EE400E040F5E70148F3E7E98FFFFFEA8FFFFFE2
:101EF40010B5044618B90D4B0D485B6898476168E6
:101F040008290DD031F004030AD011F0020108D0E1
:101F14002146084802F004FC002323600023636088
:101F240010BD1422206804F04FF8F7E7A8450120FB
:101F3400EB8B00004050012010B5044618B9164B35
:101F440016485B6898476368042B23D0082B21D07C
:101F5400CBB92368BBB94FF0FF324FF0FF332146B2
:101F64000F4802F0ABFB08B923681BB90A4B0D48B4
:101F74005B68984714220021206804F025F8636800
:101F840043F002036360206805F04EFF636843F08A
:101F94000103636010BD00BFA8450120EB8B000066
:101FA40040500120118C000008B5E8B14368042BAF
:101FB4000CD101220368D3E8EF1F002903D1C3E841
:101FC400E02F0028F7D10BD1002008BD53B10068E1
:101FD4004FF0FF324FF0FF3302F0CCFB0028F3D078
:101FE4000348F2E70348F0E76FF4E040EDE700BF91
:101FF400E98FFFFFEA8FFFFF08B50649402314224B
:10200400054805F0F6FEBDE808400449044803F01D
:1020140065B800BF5C50012040500120DC83000003
:10202400CC830000094A0A49936809689867D9670C
:1020340008494B6843F080534B60002383F31188B5
:10204400BFF36F8F9368D86F704700BFF0550120BE
:10205400F485000000ED00E013498A684FF0380071
:102064001044EFF3098C80E8F01F202080F31188DE
:10207400BFF36F8F0D4F4FF000664A6A8A603E606F
:10208400906F0023936780F3118802F1380090E881
:10209400F01F8CF3098802F1000004B503F035FF4A
:1020A400BDE8044070470000F055012004ED00E055
:1020B4001EF0040F0CBFEFF30880EFF30980816971
:1020C40011F8021C0229FFD001B503F022FF01BD63
:1020D40043B2002B08DB012200F01F0002FA00F0DB
:1020E400024A5B0942F82300704700BF00E100E0A8
:1020F400054B420953F82220012300F01F0003FA84
:1021040000F01040704700BF00E100E043B2002B34
:1021140001F10101ACBF03F16043064B4FEA4111E9
:10212400C9B2ABBF03F5614300F00F0083F800139D
:102134001954704714ED00E080B51D4604460F465F
:10214400164600F0D5FA002383F30B880B4B314677
:102154002A463846A3F52056202586F30B8883F3B8
:10216400098863B64FF0000383F31188BFF36F8FC0
:10217400A04785F31188BFF36F8FFEE7809B012092
:10218400014910220A60704710ED00E072B6404029
:1021940080F31188BFF36F8FBFF34F8F30BF62B6E8
:1021A400BFF36F8F704700BF72B6494081F3118847
:1021B40020BF80F3118862B6704700BF37B505466B
:1021C4000C46C9B18B6810480093D1E9002345211E
:1021D40003F063FB636945210093D4E903230B48AF
:1021E40003F05BFB4521E269094803F056FB4521F6
:1021F400A269084803F051FB2146284603B0BDE814
:10220400304002F099B900BF3E8C0000728C00008F
:10221400A68C0000BA8C000030BFFFF7FDBF00BFE2
:102224000E4A08B50E4B22F07F029A60BFF34F8F1F
:10223400BFF36F8FD3F8882022F47002C3F888208C
:10224400EFF3148323F0040383F3148802F0C2F938
:1022540002F046FD00F01EFA02F0DEF90000000074
:1022640000ED00E001B572B60B4A106A00281EBFEB
:102274000021116205F0BBFD62B6EFF30580A0F109
:1022840010004FEAC0000549014409C99847BDE858
:102294000140034908470000F05501205C8000001C
:1022A4007126000003F0EDFC202080F3118808481B
:1022B4004FF40061401880F30988EFF31480022181
:1022C400084380F31488BFF36F8FFFF7A9FF000062
:1022D400809B0120EFF30880EFF3098101B572467A
:1022E40000F008F901BD00BF70B5224C06460D464A
:1022F4002148452103F0D1FAA26AD00603D545212D
:102304001E4803F0CAFAA36A190703D545211C48DD
:1023140003F0C3FA174CA36A9A0710D5452119484C
:1023240003F0BBFA626BA36A1B0608D54521164865
:1023340003F0B3FA1EB1A36A23F08003A3620D4C29
:10234400A26AD00703D54521104803F0A6FAA36A70
:10235400990603D545210E4803F09FFA0020054B4A
:102364009A6AD20658BF9A6A9A6A42F0FF029A623F
:10237400287070BD00ED00E0ED8C0000088D0000B9
:10238400408D0000588D0000758D0000908D000078
:10239400B48D000070B5234C06460D4622484521F5
:1023A40003F07BFAA26AD10403D545211F4803F048
:1023B40074FAA36A1A0503D545211D4803F06DFA82
:1023C400184CA36A9B0510D51A48452103F065FAF9
:1023D400A26BA36A180408D54521174803F05DFAD7
:1023E4001EB1A36A23F40043A3620E4CA36A5905E9
:1023F40003D54521114803F050FAA36ADA050BD539
:1024040045210F4803F049FA0020064A936A43F431
:102414007F439362287070BDA36A9B04F4D5452161
:102424000848EFE700ED00E0E88D0000038E0000AF
:10243400408D0000198E0000378E0000518E000080
:10244400718E0000B48D000038B5214C452121481F
:1024540003F023FAA26A950103D545211E4803F02F
:102464001CFAA36ADC0103D545211C4803F015FAC4
:10247400174DAC6A14F4801404D04521184803F0B5
:102484000CFA0224AB6A180303D54521154803F05E
:1024940004FA0F4DAA6A510303D54521124803F0EB
:1024A400FCF9AB6A9A0303D54521104803F0F5F90A
:1024B400074DAB6ADB0303D545210D4803F0EDF965
:1024C400AB6A20466FEA03436FEA1343AB6238BD3D
:1024D40000ED00E08E8E0000AB8E0000C38E000085
:1024E400E28E0000118F0000348F00005E8F000028
:1024F4007D8F00002DE9F0434A4B0F46D3F804903A
:1025040000258BB0C9F3080885F31188BFF36F8FDA
:1025140002F07F43B3F17F4F07D102F00C03082B85
:1025240005D14521404803F0B8F92F4603E01207CE
:1025340001D4074601250022A8F1030614468DF8AC
:102544000720092E5BD8DFE806F0054F53335A5AAB
:102554005A5A5A574521354803F09FF9314B8DF8A3
:102564000740DC6A14F0020405D04521304803F02A
:1025740094F900241FE0DB6A5B001CD545212D483B
:1025840003F08BF92C4B1B782BB101200DF10701C3
:10259400FFF7AAFE0EE0294B1B782BB101200DF1A9
:1025A4000701FFF7F7FE05E0254B1B889BB213B12B
:1025B400FFF74AFF04469DF8073093B920223946B5
:1025C40002A803F0D6FC099B35B3C3F3080222B971
:1025D4006FEA53236FEA43230993204602A9FFF7C6
:1025E400EDFD0BB0BDE8F08300200DF10701CFE74E
:1025F40000200DF10701D4E745211248B7E712493D
:1026040019F4F87F114A124808BF0A46A8F11003CA
:10261400452103F042F9ACE723F4FF7323F00103EF
:10262400DAE700BF00ED00E0DB8F00000B90000054
:10263400279000004D90000028ED00E029ED00E017
:102644002AED00E071900000AD8F0000C28F000001
:10265400AC900000044B5A6942F010025A615A6966
:1026640042F480625A61704700ED00E0704700BF99
:10267400BFF34F8F0549064BCA6802F4E062134367
:10268400CB60BFF34F8F00BFFDE700BF00ED00E05C
:102694000400FA05002320210348C2180133412B0A
:1026A40082F80013F9D1704700E100E008B50E4B41
:1026B4009B68834207D1EFF3058393B10B4A5368B8
:1026C40043F08053536002F0C7F94FF02003EFF357
:1026D400118083F31188BFF36F8FBDE8084005F0C4
:1026E400AABB02F0DDFA00BFF055012000ED00E0C6
:1026F4000121024B024A034800F032B900000420D1
:1027040000450120F083000010B50B680C7A23F01B
:102714001F0204F01F031A43CB68640923F01F034C
:10272400044943EA440343F001038860CA600B612F
:1027340010BD00BF90ED00E030B54B680C6885B06B
:102744000A898D7A0094013B24F01F04234402F08B
:102754001F0242EA451223F01F030F2804468DF896
:102764000820039309D902464521064803F095F849
:102774006FF01504204605B030BD6946FFF7C4FF6D
:10278400F8E700BFC89000002DE9F04F89461446D1
:1027940006464FF00008524D85B0C84523DA7768E5
:1027A400002F42D01F2F17D9FB0615D1D6F800A051
:1027B4001AF01F0F10D1504603F0B6FB834607EB07
:1027C4000A00013803F0B0FB834510D06FF0150BFD
:1027D4005A464521434802E042464521424803F017
:1027E4005CF86FF01504204605B0BDE8F08F1BF1CE
:1027F400160FEDD0631E5B45EADBC5F808B0E96847
:10280400C5F808B02F6921F01F01D6E900321A4437
:10281400994247F01F0702F1FF3A1CD1574508D1EE
:1028240031465FFA8BF0FFF787FF08F101080C3699
:10283400B3E73146C5F808B0EB6822F01F0203F095
:102844001F031A43EA60E0B2FFF776FF10F1160F98
:10285400C7D0441CE9E7013B5745E0B223F01F030E
:10286400C5F808B006D12A69314602F01F021343A5
:102874002B61E9E7296901F01F010B432B61314604
:10288400FFF75AFF10F1160FABD0C5F808B0EA688D
:102894009DF80830013F62F304038DF808302B697A
:1028A4009DF808205B0863F347128DF80820D6E9E9
:1028B40000321344009323F01F033B44441CA3EB56
:1028C4000A0AE0B22AF01F030F28039303D9024631
:1028D4004521064883E76946FFF716FFB9E700BFBD
:1028E40090ED00E01B910000F3900000C890000000
:1028F4000522034B5A60BFF34F8FBFF36F8F7047AE
:1029040090ED00E0BFF35F8F0022014B5A607047E7
:1029140090ED00E038B50E4C2568102D14D8FFF763
:10292400F1FF00200B4B0C4A1A63854205D10B4B77
:102934001D70FFF7DDFF002038BD616801EB001159
:10294400FFF7E2FE0130F0E74FF0FF30F4E700BF9D
:10295400FC83000090ED00E0AAFF44003C730120DA
:1029640010B5034C2278FFF70FFF207010BD00BF95
:102974003C730120014B1860704700BF30450120B3
:1029840000F01F02054800EB8200D0F8003223F467
:10299400403343EA0143C0F80032704700258450B5
:1029A40008B5094B1A786AB901210D20197005215F
:1029B400FFF7ACFB0D20FFF78BFB4FF00042034BFE
:1029C400C3F80423002008BD3D73012000D000504B
:1029D400F7B50E46416806F01F05097AB2F5A03F27
:1029E400C76845EA41150AD15C4805F01F018031EA
:1029F40050F82110C80707D56FF0220093E0B2F514
:102A0400005FF96800F091800121F868B14001434A
:102A1400F96001217869B140B2F5A03F0CBF0843C9
:102A2400884378610020BA69B3F5C02F0CBF0A430C
:102A34008A43BA613A69B3F5802F0CBF114322EA85
:102A44000101474A3961D2F80433DBB200F5A271BF
:102A540052F82110C1F304218D426BD123FA00F105
:102A6400C90767D5830003F1A04303F55043D3F8A6
:102A7400101521F00101C3F8101501238340C2F899
:102A84000833C0B200F04AFE28460021FFF778FF61
:102A9400F868F04010F0010045D07869F04010F07B
:102AA40001044ED0BB690DF10700F340DB0757BFAB
:102AB4003969032621FA06F606F001065CBFC6F161
:102AC4000206F6B200F04CFE264B984236D10020A6
:102AD4009DF807102D028B0003F1A04303F550432A
:102AE400D3F8102505F4F85522F4473222F4407245
:102AF400C3F81025D3F8102515438A0002F1A0422B
:102B040002F5514245EA0646C3F8106510601268A2
:102B1400D3F8102542F00102C3F810250123104A0E
:102B24008B40C2F8043303B0F0BD0120B04021EA69
:102B340000016DE70130082888D1A5E76FF0120085
:102B4400F1E739692846F14001F00101C1F10301BF
:102B5400C9B2FFF715FF2046E5E700BF0025845002
:102B640000D000500000AD0B284B70B546682848D3
:102B7400134083423BD00DD8062B15D005D89BB10A
:102B8400022B36D06FF0150030E0B3F5801FF9D179
:102B9400012309E01F4883422DD0B3F5A00F2CD0A8
:102BA400B3F5800FEED10223D0064CBF0325C2F348
:102BB400401582F4807412F4007FC2F34020C4F301
:102BC400002406D012F4006F766818D001228A40DF
:102BD400B26040EA4402002042EA032301F01F01EC
:102BE4000D4A43EA8503803142F8213070BD072342
:102BF400DAE70423D8E70523D6E70323D4E752050D
:102C040042BF01228A40F260E3E700BF0600F00001
:102C14000600100002004000002584502DE9F8430E
:102C24003F4F3E68002E4FD04FF001084FF000098F
:102C34003C4BDD68D3E905210A4325EA02053A4AFB
:102C44001B6914695C4025EA040475BB3D603B685C
:102C5400002301251F463548D0F8042305FA03F163
:102C6400114211D09A0002F1A04202F551421168BA
:102C740051B103F5A27150F821101760C1F304217A
:102C840005FA01F112680C430133082BE4D1ECB9C5
:102C94004EB101260027234DEC68D5E905210A43EE
:102CA40024EA020454BBBDE8F88315EA080F06D0F1
:102CB400002109F01F00FFF763FE25EA080509F16A
:102CC40001094FEA4808C0E73446C1E7154B596883
:102CD4000029DDD00D68164F002D38BF00258A6805
:102CE400224002D038464B689847002DD0D02B683C
:102CF4002946002B38BF00231D46F0E726420CD09E
:102D0400296907F01F00F94001F00101C1F1030135
:102D1400C9B2FFF735FE24EA060401377600C1E79D
:102D24007CD100505C5501200025845000D0005017
:102D340048460120024B0B6001231360704700BF1B
:102D440078550120004870476C84000010B503F0EA
:102D5400EBFB034C206003F0E4FB6060002010BD3B
:102D640078550120F8B50E46144603F0DAFB2146E7
:102D74000546304603F09BF93746F8B1B6FBF5F348
:102D840005FB136323B9B4FBF5F005FB104040B118
:102D94002346324645210C4802F07FFD6FF01500B2
:102DA4000BE0A54209D803F0BCFB0546384600F009
:102DB40019FD641B2F44F9D12046F8BD2346324641
:102DC40045210248E8E700BF599100007D910000C9
:102DD40070B50D461946284616461C4603F067F999
:102DE40040B9094823462A46452102F056FD6FF0B2
:102DF400150070BD34B122462946304603F0B9F8B7
:102E04000020F6E72046F4E77D910000F8B50E4671
:102E14001946304617461C4603F049F940B9234683
:102E240032464521124802F038FD6FF01500F8BD16
:102E340044EA060515F0030504D02346324645212D
:102E44000C48F0E78CB12B19032BA6EB050006D830
:102E5400094AD2F80034DB07FBD50020E7E77B1BE7
:102E6400196800F0DDFC043DEDE72046DFE700BF14
:102E74007D9100009F91000000900350F0B54B79C4
:102E8400012B29D0032B24D110268B79032B20D19D
:102E9400CC7924B1012C1CD143681B79CBB10A79BC
:102EA40012B1022A15D10E220B684568B3F5164FEC
:102EB4002D6865D02DD8B3F5165F64D016D8B3F558
:102EC400966F62D00AD8B3F5967F61D0B3F5167FBA
:102ED40061D06FF0220052E00026D6E7B3F5166FFA
:102EE4005CD0B3F5965FF4D1374B3CE0B3F5E14FDA
:102EF40057D007D8B3F5615F55D0B3F5964FE8D1F5
:102F0400324B30E047F61227BB42E2D14FF40003C4
:102F140029E0B3F5613F48D013D8B3F5963F47D0C5
:102F240009D84DF6C027BB4244D0B3F5614FD0D188
:102F34004FF46B0317E0B3F5E13FCAD14FF0EB73E5
:102F440011E0B3F5612F38D008D8214FBB4237D0F8
:102F5400B3F5E12FBDD14FF0E86304E01D4FBB4250
:102F6400B7D14FF08053C5F82435C36834432243A6
:102F7400043303C9C5F86C2583E803000020F0BDC1
:102F84004FF41D03EFE7144BEDE74FF49E23EAE7FC
:102F94004FF4A033E7E74FF41C33E4E74FF41D2369
:102FA400E1E70E4BDFE70E4BDDE74FF06C73DAE73A
:102FB4000C4BD8E74FF46503D5E74FF07063D2E7C5
:102FC4004FF08063CFE700BF00B0130000A04E00B5
:102FD40090D0030040420F000050270000C075004D
:102FE40000F03A0000903A012DE9F0410646884687
:102FF400C76804F0CDFFB8B9284B1B7883F00103F0
:103004007268156893B14FF02003EFF3118483F3D2
:103014001188BFF36F8F304603F0D6F838BB84F3C2
:103024001188BFF36F8FEEE70123E9E7642430468C
:1030340003F0CAF870B9012003F063FA013CF6D139
:103044000021212001F014FEF0E784F31188BFF37E
:103054006F8FF5E74FF02003EFF3118483F31188AA
:10306400BFF36F8F304603F0AFF80028EDD0012393
:10307400002207F8148FC5F84475C5F84835C5F81B
:103084002021D5F82011C5F85821D5F85821AB6076
:1030940084F31188BFF36F8FBDE8F0817E73012044
:1030A4004FF0000C43682DE9F041C6681C680F46D8
:1030B400C4F800C505463060086801213E4B00F0A5
:1030C4001F02914099600321803243F822107A68EC
:1030D400511C1EBF02F01F01803143F821C0B968A2
:1030E400C4F80C05481C18BF0020C4F814251EBFE2
:1030F40001F01F02803243F82200F868421C0CD011
:103104004FF0010C00F01F020CFA02FCC3F808C0D7
:103114004FF0030C803243F822C0C4F80805C4F809
:103124001015E96828460431FFF7A8FE804678B9EF
:103134006B689B79E3B106F1160000F0D1FA1F4BDE
:10314400984208D045211E4802F0A7FB6FF00408FE
:103154004046BDE8F081B37D43F00043C4F8A0319C
:10316400C4F88C300123B27D9340164AC2F804356A
:103174000823C4F800357B6801330CD00023C4F85D
:103184001031D4F8103106F11503C4F83435012395
:10319400C4F8383523606B689B791BB94FF480738E
:1031A400C4F8043300231436C4F84465C4F848351D
:1031B4000123A360E360CBE7002584500000AD0B3E
:1031C400CC9100000070015030B585B06C460546C6
:1031D400084B0FCB84E80F00002201210820FEF7E2
:1031E40095FF0820FEF774FF21462846FFF758FF95
:1031F40005B030BDB082000030B585B06C460546E0
:10320400084B0FCB84E80F00002201210920FEF7B0
:103214007DFF0920FEF75CFF21462846FFF740FFAB
:1032240005B030BDC082000040EA0103C3F30E03C1
:1032340030B58BB940F21515094CC90BC0F3C73032
:10324400994201D1002030BDC218D2B202F5C07239
:1032540044F822500133F3E76FF01500F3E700BFA1
:10326400003000500348452108B502F016FB002049
:10327400FFF7FEF907920000816808B5044A10239D
:10328400103902F041FD003818BF012008BD00BF0D
:10329400D084000030B50C46816887B0102302AAA0
:1032A4001039054602F013FD002811DB10222846D0
:1032B40002A903F082F868B103232370A9680123EB
:1032C40028460DF10702283902F001FD00280BDA27
:1032D40001202AE01022164902A802F03AFE002832
:1032E40014BF02230123E8E79DF80730284603F0C2
:1032F4000F021B096270237101220DF1070103F013
:103304005CF810B96378042B03D90123637000239C
:103314002371AA682846203AA11C03F0A2F80028C9
:10332400D6D12846E11C03F0C5F807B030BD00BF74
:10333400D08400002DE9F04385B06946032003F0F2
:10334400BDF818B1FF2005B0BDE8F083072002A93D
:1033540003F0B4F802460028F4D19DF800509DF81B
:1033640008609DF803709DF80B809DF802901E4C38
:103374002946207803F061F800B33146607803F001
:103384005CF8D8B1A378042B01D0BB4216D1E37802
:10339400042B01D0434511D12379042B0CD163793B
:1033A400022B16D1114A1248492102F076FA6079AB
:1033B400831E022BC7D9C5E74B45F0D00132032A3F
:1033C40004F10604D4D10B48492102F066FA012025
:1033D400B9E7032B05D0084A0849042B18BF0A464D
:1033E400E1E7074ADFE700BF7F9200003B9200005D
:1033F400579200006A920000349200004592000047
:1034040040920000054B1868043B1B68092B03D14C
:10341400431E584258417047002070473401FF0052
:1034240008B5474B1B68092B01BF4FF050230022FE
:10343400C3F81421C3F81821FFF7E4FF30B10123C6
:10344400404A1360A2F63822C2F878353C4B1B6818
:10345400092B07D13C4B1B68012B1EBF01223B4BA0
:10346400C3F87825FFF7CEFF10B10E22384B1A604F
:10347400334B1B68092B04D10022364B1A600122FE
:103484005A600022D30003F57F03D3F800130131FF
:1034940008D0D3F800130132D3F80433B2F5807F97
:1034A4000B60EFD12C4BDA69D1073BD52B4B194676
:1034B400D3F80024012AFBD1C3F80425D1F8003441
:1034C400012BFBD1244BDA69D20708D5DA692349E9
:1034D40022F00102DA61D1F80024012AFBD11A6A30
:1034E40001320AD11A6A22F0FF0242F020021A6263
:1034F4001A4AD2F80034012BFBD10022174BC3F82F
:103504000425D3F80024012AFBD1BFF34F8F1449BB
:10351400144BCA6802F4E0621343CB60BFF34F8FCD
:1035240000BFFDE71B6A0133C0D00D4AD2F88C30CE
:1035340043F44063C2F88C300B4B0C4A1A6008BD4C
:103544003001FF00384A00503401FF0000400050B1
:10355400E4AE03500C4700500080FF00009003507D
:1035640000ED00E00400FA058C4501200090D00332
:10357400044B1A7922B9012218601A710248704763
:1035840002487047805501200000AD0B0C00AD0BC4
:1035940010B1012820D070474FF05022D2F81834CF
:1035A400D2F81814C90311D503F00303022B0DD16B
:1035B400C2F8183500220D4B1A601B6802224FF026
:1035C4005023C3F8042301229A6070474FF050231C
:1035D4000122C3F81825EDE70022054B1A601B6889
:1035E4004FF05023C3F8040318607047045100508F
:1035F4000051005038B510B1012818D038BD4FF033
:1036040050230222012142F210751C46C3F80823FC
:10361400154A10601268154A1160D4F81834DB0397
:10362400ECD5012002F06DFF013DF6D1E6E74FF045
:103634005024002242F210750D4BC4F808031A609E
:103644001B680C4B1860D4F80C34D4F80C2403F029
:103654000103D203D2D5002BD0D0012002F051FFB8
:10366400013DF0D1CAE700BF045100500C50005096
:103674000051005004500050164B10B51A6852B156
:10368400002018601B6801224FF05023C3F8082360
:10369400114B1B689847114B1A688AB100221A60B3
:1036A4001B684FF05023D3F81824D3F8181402F0F1
:1036B4000302012A4FF0020103D1C3F818159A60DE
:1036C40010BDC3F80813044B0120BDE810401B686B
:1036D400184700BF0051005080550120045100508C
:1036E4000B4A70B51668F14389B271B10025ECB28A
:1036F40021FA04F3DB0705F10105F8D50123A34002
:10370400334304700348136070BD0348FCE700BFF3
:10371400885501200000AD0B0200AD0B012303FA14
:1037240000F010F0FF0F12D04FF02003EFF31181DF
:1037340083F31188BFF36F8F064AD36C23EA00002A
:10374400D06481F31188BFF36F8F03487047034837
:10375400704700BF8C5501200000AD0B0400AD0B79
:103764002DE9F041FF22002401260546DFF858E048
:103774001448DFF85880E3B24FF02001EFF3118CC6
:1037840081F31188BFF36F8F22FA03F1C9070AD5B9
:10379400DEF84C1006FA03F7394201BF40463943BC
:1037A400CEF84C102B708CF31188BFF36F8F40450B
:1037B40005D006FA03F39A4304F10104DBD1BDE812
:1037C400F08100BF0200AD0B8C5501200000AD0B51
:1037D4000022034BC3F88425C3F80425704700BFB7
:1037E4000090035008B5C0F30B0383B90222094BC0
:1037F400C3F88425C3F804254FF0FF320260D3F8E0
:103804000024D207FBD5FFF7E3FF034808BD0348B4
:10381400FCE700BF009003500000AD0B0A00AD0BA5
:103824000122074BC3F88425C3F80425D3F80824E0
:10383400D207FBD50160BFF35F8FFFF7C9BF00BF9D
:103844000090035001680E4A0346914215D1C169A4
:10385400A2F11022A2F1EF1291420ED18268012A44
:103864000BD8C26812B101698A4206D0586928B1DE
:103874009B691B1A5842584170470120704700BF8A
:1038840055AA00FF0D4B70B59E68A6B13046FFF7F0
:10389400D9FF044678B9F3686BB935690DB9204688
:1038A40070BD2846FFF7CEFF28B9EB68B34202D1BA
:1038B4002E462D69F2E70124F1E700BFDC55012013
:1038C4002DE9F843404D2C68D4B1AC68C4B100284C
:1038D4004DD000294BD001FB00F6B6FBF0F0884236
:1038E40045D1301D43D8B1070DD026F00307043766
:1038F400EC6803E06368BB423BD2A469002CF9D1B5
:103904002046BDE8F8833746F2E7E86044E007F173
:10391400200C04EB0C03203959600021DFF8B0E0DF
:10392400C3E902142169196144F80CE0DFF8A4C06A
:10393400C3F81CC001B1CB60C3E90520AAB19361EF
:103944009A6902B15361236100234FF00109C4E96C
:1039540005332B69C4E90179DB072DD5FFF792FF05
:1039640050B31A4B48461B6825E0EB60E8E7002497
:10397400C6E7A3681BB1154B01201B689847D4E91F
:103984000520616804F12008C91B2329BFD801233D
:10399400A360002AB9D09061A36903B15A610023DE
:1039A400C4E905332B69DA0706D5FFF76BFF18B1B5
:1039B4000120064B1B689847324600214046444686
:1039C40002F002FB9CE700BFDC5501209445012076
:1039D40055AA00FF669911EE2DE9F041054600282D
:1039E4007CD03F4E3368002B78D0B268002A75D063
:1039F400834203D872681344984203D3394B01209D
:103A04001B689847A5F120042046FFF71BFF18B157
:103A1400344B01201B68984755F8183C012B03D000
:103A2400304B01201B689847002355F8147C45F857
:103A3400183CAFB1BA6892B955F81C3C03F12002A6
:103A44007B6813447B6055F8103C3B6103B1DF6035
:103A540020462022002102F0B7FA23463C461F46A6
:103A64002069002832D08368002B2FD16368426814
:103A74002033134463600369D4E905212361DAB96F
:103A840001BB426981696261A161EAB19461A26981
:103A940002B1546103B1DC602022002102F094FAE7
:103AA40033699B071AD5FFF7EDFEB8B1BDE8F041C5
:103AB4000C4B01201B6818479161A1690029E0D0D3
:103AC4004A61DEE7F160F8E7F460E0E7002FE7D150
:103AD400F368A36103B15C61F460E1E7BDE8F081E0
:103AE400DC5501209445012038B50D4614220021EF
:103AF4000446124802F068FA1149124800F032F8FC
:103B0400232D1AD914F003031FBF043DED18C3F18C
:103B14000403E4182A460021204602F055FA074B14
:103B2400094AC3E900459C602260A2F11022203DAD
:103B3400A2F1EF126560E261DC6038BDDC55012062
:103B4400DD390000C538000055AA00FF014B1B6891
:103B5400184700BF90450120014B1B68184700BF60
:103B640098450120024B1860024B002019607047F1
:103B740090450120984501200A4619B1024B0021C5
:103B84001B681847704700BF9C450120F8B500F139
:103B940008064768044630460D4603F011F987428B
:103BA40016D16368B3F5807F12D80021304603F044
:103BB4007EFA00280CDD0021304603F0D4F838B139
:103BC40045B9002104F1140003F071FA00281EDC49
:103BD4001B481EE004F12C060021304603F067FA6E
:103BE4000028F5DD0021304603F0BDF80028EFD0B1
:103BF40004F138060021304603F059FA0028E7DDC5
:103C04000021304603F0AFF80028DAD1E0E70DB91F
:103C14000020F8BD002104F1440003F048FA002814
:103C2400D6DD002104F1500003F041FA0028CFDD75
:103C3400002104F15C0003F03AFA0028E8DCC7E74D
:103C440080BFFFFF70B500210446FFF79FFF0546C4
:103C5400B8B904F10806304603F096F87F2810D965
:103C640014342946204603F07EF850B1204603F070
:103C74008BF8012805D93146204603F0D5F90028F0
:103C840000DB014D284670BD00BEFFFFF0B50C46B9
:103C940087B0002105461646FFF778FF80BB03A8CE
:103CA40002F0DBFF21466A6803A803F08FF804469C
:103CB400D0B905F10804214603A803F0B5F900289A
:103CC4001BDA05F1680303A900930846234605F1AE
:103CD40014026F6803F03DFD044628B93A463146A4
:103CE40003A803F0ABF8044603A802F0BCFF0CB130
:103CF400A4F58544204607B0F0BD6FF00304F3E754
:103D0400004CF7E780BFFFFF0023C0E90033C1B9CF
:103D1400194A1A4BDFF88CC0C0E90223184B194A20
:103D2400C0E904C3184BC0E90623184B036203F12E
:103D34007453A3F52303A3F69243436281660020E0
:103D44007047134B134ADFF860C0C0E9022303F144
:103D5400794303F5740303F5016303610E4BC0E972
:103D640005C303F1D14303F5C01303F51E63C36117
:103D74000A4B03620A4BE0E767E6096A85AE67BB54
:103D84003AF54FA57F520E518C68059BABD9831F22
:103D940007D57C36D89E05C1310BC0FFA78FF964C7
:103DA400A44FFABE72F36E3C39590EF72DE9F04F69
:103DB40000F10803D1B0059308AB009300F1280388
:103DC4000693009A059B53F8040B42F8040B0698DB
:103DD4009842F8D10DF140094A4601F140004B7870
:103DE4000C781B0443EA0463CC780431234311F8B0
:103DF400024C884243EA042342F8043BEFD19D4835
:103E0400CA468646009B0099D3F81CC0D3F810809C
:103E1400D3E9056BD3E90072C9689B680190DEF8A9
:103E24000000DAF800404FEAF82585EAB815204486
:103E340085EA786505448BEA060000EA080080EA12
:103E44000B00054447EA02044FEA7730AC4480EAA9
:103E5400B70007EA02051C4080EAB7502C4304442B
:103E6400DEF80450DAF8040061440544AB4488EAFF
:103E740006050D40A44485EA06040BEB04054FEA4D
:103E8400F12B8BEAB11B8BEA716BAB444CEA070054
:103E94004FEA7C350CEA070485EABC051040204350
:103EA40085EABC55DEF808400544DAF808005B44AE
:103EB4000444264481EA08041C405D4484EA080B57
:103EC40006EB0B044FEAF32686EAB31686EA73661A
:103ED40026444CEA05004FEA75340CEA050B84EAE3
:103EE400B504384040EA0B0084EAB5540444344431
:103EF4003244DEF80C00DAF80C6081EA030B30443B
:103F04000BEA020B4FEAF2268BEA010B404486EAE5
:103F1400B216584486EA7266064407EB06084FEA6E
:103F2400743045EA040705EA040B80EAB40007EAA2
:103F34000C0747EA0B0780EAB45038443044DAF8F7
:103F44001070DEF8106083EA020B3E4431440BEA41
:103F5400080B4FEAF8268BEA030B86EAB816594495
:103F640086EA78660E4444EA00074FEA703104EAB0
:103F7400000B81EAB0012F4047EA0B0781EAB051F8
:103F840039443144B444DAF81470DEF8146082EA37
:103F9400080B3E4433440BEA0C0B4FEAFC268BEA35
:103FA400020B86EABC165B4486EA7C661E4405EB7B
:103FB400060B4FEA713340EA010500EA0107254088
:103FC40083EAB1033D4383EAB1532B443344DEF81F
:103FD4001850DAF818600EF1200E3544154488EABA
:103FE4000C0202EA0B0282EA0807EA194FEAFB25EF
:103FF40085EABB1585EA7B65154466194FEA733279
:1040040041EA0304044001EA030782EAB3023C43A1
:1040140082EAB35222442A445EF8044CDAF81C5073
:104024000AF1200A6719B8448CEA0B07374087EA7B
:104034000C0747444FEAF62888EAB61888EA7668F7
:10404400474400EB070843EA02044FEA723080EA6F
:10405400B2000C4003EA020580EAB2502C43044447
:104064000548274470457FF4DAAE09F1C000079093
:1040740004E000BFE084000020850000D9F8380087
:10408400D9F804504FEAF04E8EEA704ED9F8004049
:104094008EEA902ED9F824004FEAB54A20448AEAE1
:1040A400F51A8AEAD50A86444FEAF8240EEB0A0088
:1040B40084EAB814049084EA78608BEA060404EA7B
:1040C400080484EA0B040444019888EA060E006C90
:1040D40009F120092044049C204484446144029151
:1040E40047EA02004FEA7731C9F8204081EAB70174
:1040F40007EA0204184081EAB75120430844D9F87A
:104104001C1084444FEAF14080EA714080EA912017
:10411400D9F8081059F8184C2944014402984FEA78
:10412400B4450EEA000E019885EAF415406C85EA60
:10413400D4052944584408448EEA060E864402985D
:10414400C9F824104FEAF02585EAB01585EA7065B0
:1041540005EB0E0003EB000B4FEA7C3547EA0C033A
:1041640007EA0C0E85EABC05134043EA0E0385EA10
:10417400BC551D44049B05444FEAF34080EA734058
:1041840080EA9320D9F80C3059F814EC2344034402
:1041940002984FEABE4488EA000A019884EAFE14B1
:1041A400806C84EADE0423440AEA0B0A30444FEAB2
:1041B400FB2418448AEA080A84EABB1484EA7B6470
:1041C400824404EB0A0002444CEA05044FEA7536C3
:1041D400039286EAB5060CEA05023C4086EAB55627
:1041E4001443344404444FEAF14080EA714080EAC5
:1041F4009121D9F8100059F8102C864471444FEAE3
:10420400B24E8EEAF21E8EEAD20E8E4402990398C2
:1042140081EA0B0101400298C9F828304140019815
:10422400C66C0398464476443144039E4FEAF0201A
:1042340080EAB61080EA7660461845EA040005EA8A
:1042440004014FEA743800EA0C0088EAB408084311
:104254004FEAF34188EAB45881EA7341404481EA61
:104264009323D9F81410304407EB060A59F80C6C60
:104274000A4413444FEAB64282EAF61282EAD602AC
:104284001A44039B02998BEA0307019B07EA0A0776
:104294001B6D87EA0B0713440B444FEAFA2181EAAA
:1042A400BA111F4481EA7A61CB1944EA00074FEA44
:1042B400703104EA000881EAB0012F4047EA080798
:1042C40081EAB051394419449C4459F8088CD9F80E
:1042D40018304FEAFE4787EA7E47C9F82CE087EAA0
:1042E4009E2E9F194FEAB84383EAF81383EAD80352
:1042F40077441F44039BC9F8302083EA0A0E0EEA70
:104304000C0E8EEA030E019BC9F834705B6D3B44BE
:104314005B449E444FEAFC2383EABC1383EA7C6338
:1043240003EB0E0605EB060B4FEA713340EA010579
:1043340000EA010E254083EAB10345EA0E0583EA4B
:10434400B1532B443344D9F81C504FEAF24659F880
:1043540004EC86EA724686EA922205EB08061644C5
:104364004FEABE4282EAFE1282EADE021644019A53
:104374008AEA0C08956D039A3544154408EA0B083B
:104384004FEAFB2288EA0A0882EABB12454482EA21
:104394007B621544C9F838604FEA7332661941EA02
:1043A4000304044001EA030882EAB30244EA08046D
:1043B40082EAB35222444FEAF74484EA77442A4417
:1043C40084EA9727D9F80050049CA6444FEAB544E0
:1043D40084EAF51484EAD505019C7744E46D3D44F0
:1043E4008CEA0B0E2C440EEA060E4FEAF6278EEAF0
:1043F4000C0E544487EAB617744487EA7667274458
:1044040000EB070843EA02044FEA7230C9F83C5053
:1044140080EAB2000C4003EA020580EAB2502C4361
:1044240004440198274420300190079848457FF4BC
:1044340025AECDE90D6BCDE90872CDE90A31CDF891
:104444003CC0CDF83080059B00991B6851F8042BC3
:104454001344059A009142F8043B069B059293424B
:10446400F1D1002051B0BDE8F08F00BFF8B5104B7A
:10447400104F53F82050013053F82060AE4200D85A
:10448400F8BDD5E900342046984770B16CB10123DA
:10449400E41B094A2411610952F8210004F01F04A5
:1044A40003FA04F4044342F821400835E6E700BF68
:1044B400E08500000846012078460120084BC01A18
:1044C4000011084B420953F82220012300F01F0079
:1044D40003FA00F010420CBF18460020704700BFDA
:1044E4000846012078460120114970B505460E465C
:1044F400104C8C4204D10F4CB4420AD1002414E075
:104504002046FFF7DBFF10B12368AB420DD0103417
:10451400EFE72046FFF7D2FF08B91034ECE728464E
:10452400216801F00AFD0028F7D1204670BD00BFC4
:104534007846012008460120F7B505460E464FF09F
:104544002003EFF3118783F31188BFF36F8F00F01B
:10455400A1FB0022042D98BF184B044694BF53F8C6
:104564002530174B009245212A46164801F095F94B
:104574003EB1F369C3F308031BB14521124801F0AE
:104584008CF934B1204603F00DFD034608B10278DE
:1045940002B90E4B224645210D4801F07EF9314601
:1045A4002846FEF75FFE87F31188BFF36F8F20461E
:1045B40003B0BDE8F040FEF779B800BFF88500000D
:1045C40091920000A7920000D49200009F920000F4
:1045D400FA9200000248034A0021121A01F0F4BCC6
:1045E400D046012080730120012208B5084B022027
:1045F4001A70FFF73BFF00F067FB0320FFF736FF5D
:10460400FBF71CFF034A137B23F00103137308BD5C
:104614007E730120D046012008B5144B03F50062D7
:1046240082F3088883F30A880025E023104C84F879
:104634002230E57725766576A576636A43F4E02330
:104644006362FEF707F8FDF79BFD4FF0FF33284642
:10465400A362E362FFF70AFF0120FFF707FF2B467F
:104664002A4629460348FDF767FD00BF809B0120C9
:1046740000ED00E0ED45000070B50E4B0E4CA3427A
:1046840001D3002070BDD3E9030141EA000212F016
:1046940003020BD19D685A61AA4201D11C33EEE793
:1046A4005E6901320E6059610144F5E76FF015004F
:1046B400E8E700BF7C4601207C460120D3B50C46C8
:1046C40016461F464FF02003EFF3118183F3118840
:1046D400BFF36F8F43695BB123601B6843618369D8
:1046E40001338361002081F31188BFF36F8F11E0E0
:1046F40056EA070203D16FF00B002360F3E702468A
:10470400CDE90067044800F05FFA18B9034B9B68D1
:104714005B69236002B0D0BD7F730120F055012096
:10472400F8B504460D464FF02003EFF3118683F3EA
:104734001188BFF36F8F47696FB903F004FC50B160
:104744002A68C767426103F0A3FB3146BDE8F8401D
:10475400074800F0CBB82B6862691A602B68636164
:10476400A369013BA36186F31188BFF36F8FF8BD82
:104774007F7301202DE9F341044616461F464FF08E
:104784002003EFF3118883F31188BFF36F8FC3689D
:10479400324A6BB180689168884219D056EA07039F
:1047A40018D188F31188BFF36F8F6FF00F000CE0FE
:1047B400916891F90E100133E36093682161A3605D
:1047C40088F31188BFF36F8F002002B0BDE8F08139
:1047D4002169F0E790F90E3091F90E109942A8BFC3
:1047E400194621EAE1718B422CDD00F0FDF9054602
:1047F40022464146CDE90067194800F0E5F9002852
:10480400E3D04FF02003EFF3118683F31188BFF355
:104814006F8F23682169A34207D033B193F90E3017
:104824009942A8BF194621EAE171A06890F90E30B7
:10483400994209D16DB13146094800F057F86FF03B
:104844000A00C2E70025D3E700F0CEF90028F2D130
:10485400F0E786F31188BFF36F8FF0E7F05501207E
:104864007F73012038B583680446002B33D01D4A7A
:104874009268934232D1C368012B05D0013BC360D7
:1048840003F0EFFA002038BD4FF02003EFF3118559
:1048940083F31188BFF36F8F0169806890F90E303C
:1048A400994201D000F0A0F9204603F04CFBA0602F
:1048B40058B190F90E2022610022C26703F0E8FA91
:1048C4002946094800F012F8DAE7E06085F3118818
:1048D400BFF36F8FD4E76FF01500D4E74FF0FF30CC
:1048E400D1E700BFF05501207F73012049B9EFF3F0
:1048F400058030B9054B5A6A9B689A4201D0FDF78E
:1049040091BB81F31188BFF36F8F7047F05501207D
:10491400094B03F12802824205D19B688B4202D1E4
:104924004B7BDB0606D1D1E9003213605A600023C9
:10493400C1E90033704700BFF05501200F4A01461A
:10494400136910B50BB1D0680DE002F1280003F033
:1049540095FA9468637B13F0200F1CBF43F008039F
:1049640063730028EFD039B99368597BC90603D122
:104974008169002908BF1846506210BDF055012016
:1049840070B490F90D20437B002A2CDBDB062AD17E
:10499400836943BB154A114651F8284F8C4218BF0E
:1049A4002346002B38BF0023D46AB3B190F90E60BC
:1049B40093F90E50AE4203DBA3420ED01B68F4E71A
:1049C4005A68C0E9003210605860437B63F07F038B
:1049D400437370BC0020FFF7B1BFC0E90014D36A71
:1049E4001860D062F1E770BC704700BFF055012039
:1049F40070B50446183003F0D7FA4FF02003EFF3F4
:104A0400118683F31188BFF36F8F94F90D30002B57
:104A140007DA21460E48FFF77BFF637B03F07F0331
:104A240063730C4D637BA86843F010036373031B2B
:104A340058425841FFF782FF86F31188BFF36F8F06
:104A4400AB68A34203D1BDE8704003F000BA70BD67
:104A540018560120F05501202DE9F04104464FF08D
:104A64002003EFF3118283F31188BFF36F8F437B2D
:104A740013F0280F05D082F31188BFF36F8FBDE8C0
:104A8400F08143F02003437382F31188BFF36F8FE7
:104A9400183003F089FA4FF02003EFF3118683F303
:104AA4001188BFF36F8F637BD80616D1A269A2B9B0
:104AB400190607D521462248FFF72AFF637B03F036
:104AC4007F0363731F4B9868021B50425041FFF7EA
:104AD40035FF002704F130081DE09B07F9D5214676
:104AE400A068FFF715FF637B23F0020363730023C1
:104AF400A360EEE705F1180003F056FAA86829460A
:104B0400FFF706FF6B7B284623F002036B73AF604D
:104B1400EF67FFF735FF256B454501D0002DE9D13F
:104B2400637B43F008036373236E86F31188BFF33A
:104B34006F8F002BA3D02046BDE8F041184700BF7B
:104B440018560120F055012008B590F90D300146A2
:104B5400002B06DA0748FFF7DBFE4B7B03F07F03ED
:104B64004B73054B9868431A58425841BDE80840B6
:104B7400FFF7E4BE18560120F05501202DE9F0415D
:104B8400064614461D464FF02003EFF3118783F3C6
:104B94001188BFF36F8F03F0ABF987F31188BFF36C
:104BA4006F8F6B1C08BFB4F1FF3F08D022462B4621
:104BB40006F118000349BDE8F04100F0F3B8BDE880
:104BC400F08100BFB57E000010B50C4605481146C3
:104BD400DDE902238068FFF7D1FF2046BDE81040DD
:104BE400FDF720BAF05501202DE9F04104464FF0BD
:104BF4002003EFF3118883F31188BFF36F8F437B96
:104C04004EB2DB062ED1856965BB184F214607F1EC
:104C14002800FFF77DFEBB6AFA6A834218BF1D466F
:104C2400002D38BF0025A673B5B195F90E10B14219
:104C340003DCAA4210D02D68F6E76A68C4E9005282
:104C440014606C600120FFF779FE012088F311885D
:104C5400BFF36F8FBDE8F081C4E90002FB6A1C60FA
:104C6400FC62EFE70020A673F0E700BFF0550120D7
:104C7400013108BFB0F1FF3F08B506D1044B986875
:104C8400FFF7B6FE4FF0FF3008BD0020FCE700BF81
:104C9400F0550120014B9868704700BFF055012082
:104CA40008B54FF02003EFF3118483F31188BFF3A9
:104CB4006F8F044B98681861FFF79AFE2046FDF742
:104CC400B1F900BFF0550120024A0349034800F03E
:104CD400E4BD00BFF99200006493000071930000EA
:104CE40008B50648064A0749121A01F042F9BDE818
:104CF4000840054A0549064801F03BB90045012032
:104D0400CC460120B09300000000000098930000FE
:104D140000450120034B1B680BB9FDF7A7B8002021
:104D2400704700BF2056012030B5036868B10A4AB5
:104D34005268904209D043B1D3E90421D0E9044533
:104D4400121945EB0101C3E90421426813605A605A
:104D54000023C0E9003330BDA045012038B5104B15
:104D64001C689C4208BF0024FFF7D4FF05468CB1A1
:104D7400D4E90401401B61EBE571012871F10003E2
:104D84000BDB6FF000420023824273EB010400DA74
:104D9400104638BD6FF00040FBE70020F9E700BF84
:104DA400A04501202DE9F74F019119464B1C08BF7E
:104DB400B2F1FF3F82466BD06FF001034FF0FF3B2F
:104DC400541C41F10005B3EB04086BEB0509B8F181
:104DD400000F79F100030FDBFFF79CFF6FF0010375
:104DE400324AD2E9001C5B1A6BEB0C021E1B62EB0D
:104DF4000507341A67EBE075019BCAF808304FF0D9
:104E04002003EFF3118683F31188BFF36F8FFFF74D
:104E140081FF012C75F10003BCBF01240025244B44
:104E240024181A6845EBE0759A42CAE9044501D092
:104E34005F6852B95A68CAF80030CAF804205A6840
:104E4400C2F800A0C3F804A014E0D2E90489DAE9A6
:104E54000445444575EB09011DDAB8EB040069EB20
:104E64000501C2E904015168CAE90021C1F800A0A2
:104E7400C2F804A01A689A4206D0924504D1FFF7FA
:104E84006DFF0021FCF7C0FF86F31188BFF36F8F1D
:104E940003B0BDE8F08FB4EB080065EB0901BA423A
:104EA400CAE90401C6D01268C3E700BF5047012015
:104EB400A04501202DE9F74F4FF02003EFF31184B3
:104EC40083F31188BFF36F8FDFF8ACA0294D5146EF
:104ED400DFF8A8B02860D5F800C0DBF8000062460F
:104EE400DAE90089D3175845CDE900230DD060B124
:104EF400D0E90467B445BB411DDA009BB6EB030C53
:104F0400019B67EB0306C0E904C60026009B2E60E4
:104F140013EB0802019B43EB0903C1E90023FFF7EC
:104F24001DFF3146FCF770FF84F31188BFF36F8FC8
:104F340003B0BDE8F08F0022002318EB060849EB0C
:104F4400E679C0E90423ACEB0606CAE900892E60C1
:104F5400FFF7EAFE84F31188BFF36F8F83689847E5
:104F64004FF02003EFF3118483F31188BFF36F8FA5
:104F74000149B0E72056012050470120A0450120F7
:104F840038B5064C064DAC4201D3002038BD20464E
:104F9400D4E9011203F01EF81434F4E77C4601202E
:104FA4007C46012010B50A4C23681BB10123002064
:104FB400236010BD00F0AEF80028F7D001380628B1
:104FC40003D8044B53F8200010BD034810BD00BFA4
:104FD400245601200C860000FE8FFFFFBFF34F8F85
:104FE4000549064BCA6802F4E0621343CB60BFF381
:104FF4004F8F00BFFDE700BF00ED00E00400FA059D
:105004004FF0FE33002130B4064A074D074C2B60A5
:1050140013602360064A074CEB606368C2F800150E
:1050240030BC18470414845000148450081484506D
:1050340000008450A8450120024BD0E90012C3E9C6
:1050440000127047A845012048B143682BB1BFF353
:105054005F8F0023036018467047024870476FF45F
:10506400E0407047EA8FFFFF10B5044628B163683B
:1050740013B100232360636010BD024B02485B68D8
:105084009847F4E7A84501202886000010B5044697
:1050940030B100226368226043F00103636010BDF5
:1050A4000148FFF7ADFFF4E75086000080B1436884
:1050B40063B10122D0E8EF3FC0E8E12F0029F9D124
:1050C400012BF7D0BFF35F8F002070470248704771
:1050D4006FF4E040704700BFEA8FFFFF70B40B4BE2
:1050E4000668C268D0E90154C3E90242C3E9006515
:1050F400D1E903020E68064BD1E90154C3E9006506
:10510400C3E902401A6170BC704700BFB845012072
:10511400C845012010B500F033F820B1032400F095
:1051240067F8204610BD00F035F890B900F0B0F8EB
:1051340090B90F4B1B681B0EF02B08D10D4A0E4B78
:1051440012689A420AD0072400F01CF8E7E7062404
:10515400FAE70424204610BD0024F5E7012000F0FE
:1051640097F804460028F7D1044B1860D9E700BF2C
:1051740028198450241A84500000E0200C1A84500A
:105184000020704700207047014B1860704700BF33
:10519400041A845010B5114800F048F800B110BD4D
:1051A4000F4800F043F80028F9D10E4C204600F0D7
:1051B4003DF80028F3D10C4B0C481C6000F036F885
:1051C40001460028EBD100F02DF8044608B1204632
:1051D40010BD00F03FF82046FAE700BF004601206A
:1051E400F4450120FC45012004460120F845012036
:1051F40008B5084800F024F8074800F021F80748EB
:1052040000F01EF8064800F01BF8BDE8084000F066
:105214000BB800BF00460120F4450120FC450120E5
:10522400F845012000207047704700BF08B5034BC4
:1052340002681B6810689847002008BDB845012023
:1052440008B5034B02685B6810689847002008BDE6
:10525400B845012070B5094C094D2069AB689847E1
:1052640018B1084B08485B6898470021074AEB6867
:1052740011602069BDE87040184700BFC84501208F
:10528400B8450120A8450120748600003856012045
:1052940070B51A4D1A4E0446B26828699047F0B9A1
:1052A4005CB1184C2368ABB1012B1AD0013B2360CD
:1052B4002869F3689847002070BD124C216839B9F9
:1052C4000120114B114AC3F800051368002BFCD1CF
:1052D40001312160F36828699847002070BD0C48AB
:1052E40070BD0A4A1368002BFCD1074A6FF07E4058
:1052F400C2F80035FFF748FF2368D7E7C845012007
:10530400B8450120385601200000845010198450FB
:10531400E98FFFFF29B1012914BF6FF015000720A1
:105324007047032070472DE9F7430E461746994608
:10533400044628B94FF0FF38404603B0BDE8F08377
:105344000029F7D0002AF5D0CB680D8938461D44D2
:10535400042329460DEB030200F0B9FC8046002823
:10536400E8D146F60812BDF804107389914223D19E
:10537400BDF806109942DDD1042338460DEB030233
:10538400294400F0A4FC0028D4D146F60713BDF844
:1053940004209A42CED19DF82830BDF80620A3728D
:1053A4007389C4E900672B44E36004351344A4F80B
:1053B400089063612561BFE7002BE6D0BAE72DE9C9
:1053C400F7430F4690461E46044620B94FF0FF307F
:1053D40003B0BDE8F0830368002BF7D04368002BCB
:1053E400F4D04FF6FF79D4E904239A4216D2236805
:1053F4005B8923B1E368934204BF0433236104232C
:10540400216960680DEB030200F061FC0028DDD126
:10541400A37A256923B1E368AB4201D80120D7E719
:105424002189BDF80630494503F1040203D0BDF8D3
:1054340004C08C450BD116B1BDF80410318004357D
:105444003D60A8F80030236913442361C0E7154484
:105454002561C8E72DE9F74306460F4690461D46E9
:1054640000F0A1FC082804461ED8304600F0A4FC35
:10547400AC4238BF2C4681462A464146E4B26846CF
:1054840000F077FD4946621B0DEB050000F09CFD22
:1054940023466A463946304600F036FC003818BFC9
:1054A400012003B0BDE8F0834FF0FF30F9E700F0CE
:1054B40050BD4FF4C0735843303070470B7803F03D
:1054C400FB03032B14BF4FF0FF304FF4C070704741
:1054D40010B5044600F067FC4FF4C072A368303B7B
:1054E40002FB103010BD012307B5816801AA2039E1
:1054F4008DF80430FFF7AEFF03B05DF804FB13B57D
:105504000446019100F096FF0423A0F108010DEB7D
:1055140003022046FFF79EFF02B010BDF7B5054613
:1055240000200C461746FFF7F5FE6946C0B2FCF7AB
:10553400D5F930B10125009800F0C8FB284603B026
:10554400F0BD2C2101FB04542189E3680098CE1896
:10555400042331460DEB030200F0B9FB0546002895
:10556400E8D146F60813BDF8042064899A421AD19A
:10557400BDF806309C4201D00325DCE704230098E3
:105584000DEB0302A11900F0A2FB0028D2D146F6CC
:105594000713BDF804209A42EED1BDF80610214449
:1055A40031443960C7E7002CF1D0E5E7F8B513467C
:1055B4000F461646002102460546FBF733FC044617
:1055C40050B933460121284605F12C02FBF72AFC89
:1055D40010B1002F18BF04462046F8BD37B580250A
:1055E4000446426A01A903200195FCF78BF948B9E6
:1055F400019B0720226DA36201A90195FCF782F9A2
:10560400054608B1012505E0019B206A636500F0A9
:10561400CAFBE065284603B030BD0123036003F1F3
:10562400012343600023C0E9023370474379012B0F
:1056340007D10368012B04D10079431E5842584115
:105644007047002070477FB506460D46032001A928
:10565400FCF744F938BB0198FFF73AFFF16D0446B3
:10566400284600F0E4F80444019800F09CFB064648
:10567400019800F0A1FB082201460DEB020000F0A6
:10568400A3FC2B7921468DF808300198334602AAF1
:1056940000F03AFB041E18BF0124019800F016FB29
:1056A400204604B070BD0124F7E700F056BB2DE995
:1056B400F8430E46002107460846FFF72BFE044632
:1056C40001210020FFF726FE33789C4220D0984227
:1056D40020D101242C2303FB0474F86DA56AFFF781
:1056E400E8FE00278046013D636A304603EBC502AD
:1056F40053F83510D2F804901B684A46C91A4F442F
:10570400FFF7D3FFB84505F1FF35EDD8BDE8F883C1
:105714000024DFE70120F9E737B515460C460720DA
:10572400694600F0CBFEE979012903D00022204626
:1057340000F0D8FE9DF80330012B02D1204600F082
:10574400ADFEA9682046FFF7DAFE2046FDF794FD7A
:10575400002003B030BD73B50D460646FBF74AFC86
:105764000446E86038B102282FD1032001A9FCF7D0
:10577400B5F818B10124204602B070BD2A4631465E
:105784000198FBF79DFB0446D8B9019800F052FE3E
:10579400012301460DF10302019800F098FA044632
:1057A4000028E7D1012201980DF1030100F053FE16
:1057B40010B101238DF803309DF8033003F00F037B
:1057C400EB71019800F082FAD5E70724D3E713B50B
:1057D400032001A9FCF782F848B90198FFF783FE7A
:1057E4000446019800F072FA204602B010BD01246C
:1057F400FAE71FB5032001A9FCF770F8A8B90198CE
:1058040002A9FDF747FD044668B99DF80B30032B48
:1058140003D1019800F042FE0446019800F056FAC4
:10582400204604B010BD0124F7E70124F8E730B5A1
:1058340043790468012B0ABF01220222002501FBDF
:1058440002F204F1FF3402FB04F2037918BFCD0124
:10585400013B01FB0321481930BD034658B142689E
:1058640002F00302012A03D0032A04D1026812B110
:105874000020986070476FF0150070474268034637
:1058840002F00302032A4FF00002816014BF1046A5
:1058940000685A607047002070470FB407B504A928
:1058A40051F8040B0191FBF78DFD03B05DF804EB97
:1058B40004B07047038B13F0070305D10368002B72
:1058C4000CBF002003207047022B05D1438B002B13
:1058D40014BF002004207047012B05D10368002B5E
:1058E4000CBF002005207047002070472DE9F041CF
:1058F4000D4607461946281D90461E46FFF7BEFF73
:10590400044638B13346424629463846A446BDE8E3
:10591400F0416047BDE8F08110B44FF02004EFF38C
:10592400118284F31188BFF36F8F416110BC012190
:10593400FBF756BD10B50C4640B139B1081DFFF751
:105944008CFF28B9A36833F0030301D06FF015006E
:1059540010BD38B50C46054658B151B10B6843B17A
:105964004B6833B11C22002100F02EFB00202C6177
:1059740038BD6FF01500FBE770B504460E46FFF71F
:10598400D9FF051E31DB4FF02003EFF3118183F3C0
:105994001188BFF36F8F4FF6FF75638B208BAB427B
:1059A40000F007022ED0022A0ED10133638315467C
:1059B400012381F31188BFF36F8FB3B10023314604
:1059C4002046FFF793FF10E0830701D0062A0ED18B
:1059D40000233360636893B9C4E90066154662B96D
:1059E4000A4620460221FBF7FBFC284670BD052A27
:1059F4000CBF6FF022056FF004050023D9E71E6089
:105A04006660EBE76FF00A05F7E7836800EBC10116
:105A1400B3F5004F2CBF51F8220031F81200704743
:105A240000EBC1018068B0F5004F2CBF41F8223073
:105A340021F812307047012208B5FFF7E6FF40084D
:105A440008BD836800EBC101B3F5004F08D34B6870
:105A54001AB143F001034B60704723F00103FAE7E6
:105A64004B881AB143F001034B80704723F00103C4
:105A7400FAE753000122FFF7D3BF80680131B0F584
:105A8400004F2CBF02200120081AB0FA80F0C0F1A8
:105A94001F0070472DE9F04104460D46FFF7CBFF88
:105AA400A3680146B3F5004F01D3012835D0204641
:105AB400FFF7E3FF04EB800216699EB9012303FAA2
:105AC40000F0E36829460343E360204615612B4652
:105AD4000222FFF7A5FF032229462046BDE8F04134
